:020000040000FA
:10000000250004006600080C0600800C02007D0C30
:100010003600320C350004006606180A630C9600A0
:100020000307150A020CB600230A610C3600230AE6
:10003000970C3000160290000307210A020CF6010B
:10004000230A990C36007D0C96000307290A460501
:100050002A0A4604990C96004306360A610C96005B
:100060004306360A190C330026043C0A13024306E1
:100070003B0AF3003C0A2605990C96004306470A02
:10008000610C96004306470A320C35004A0A3502D5
:100090004307F500040C32009B0C3000040C3100C7
:1000A000F002530AF102500A0400F2024C0AB402B0
:1000B000350243060B0A0605C70C3000010C31005F
:1000C000F002630AF102600A160243066B0A30006E
:0A00D0000000F002680A06040B0AA3
:021FFE00EF0FE3
:00000001FF
