:020000040000FA
:10000000250004006600080C0600800C0200800C2D
:100010003600320C3500000C37000400370243076D
:10002000140A000C3700160AF7002D0A6606220A89
:10003000190C960003071F0A020CB6002D0A170CB4
:1000400036002D0AE70C30001602900003072B0A39
:10005000020CF6012D0AE90C3600800C960003070D
:10006000330A4605340A4604E90C96004306400A62
:10007000170C96004306400A190C33002604460A62
:1000800013024306450AF300460A2605E90C9600CA
:100090004306510A170C96004306510A320C3500EC
:1000A000540A35024307F500040C32009B0C300063
:1000B000040C3100F0025D0AF1025A0A0400F20257
:1000C000560AB402350243060D0A0605C70C300075
:1000D000010C3100F0026D0AF1026A0A16024306B1
:1000E000760A300000000000F002720A06040D0AD1
:021FFE00EF0FE3
:00000001FF
