:020000040000FA
:10000000250004006600080C0600800C02007D0C30
:100010003600320C3500010C37000400370243076C
:10002000140A010C3700160AF7002D0A6606220A88
:10003000510C960003071F0A010CB6002D0A500C44
:1000400036002D0AA90C30001602900003072B0A77
:10005000010CF6012D0AAA0C36007D0C9600030750
:10006000330A4605340A4604AA0C96004306400AA1
:10007000500C96004306400A190C33002604460A29
:1000800013024306450AF300460A2605AA0C960009
:100090004306510A500C96004306510A320C3500B3
:1000A000540A35024307F500040C32009B0C300063
:1000B000040C3100F0025D0AF1025A0A0400F20257
:1000C000560AB402350243060D0A0605C70C300075
:1000D000010C3100F0026D0AF1026A0A16024306B1
:0E00E000750A30000000F002720A06040D0AD4
:021FFE00EF0FE3
:00000001FF
