:020000040000FA
:10000000250004006600080C0600800C02007D0C30
:100010003600320C350004006606170A1706170A68
:100020001702080F370017053705FA0C3800770656
:10003000240A520C96000307200A020CB600300A6C
:10004000500C36003704300AA80C3000160290001D
:1000500003072D0A020CF601300AAA0C36003704F9
:100060007D0C96000307360A4605370A4604AA0C9B
:1000700096004306430A500C96004306430A190CA7
:1000800033002604490A13024306480AF300490ACA
:100090002605AA0C96004306540A500C9600430607
:1000A000540A320C3500570A35024307F500040C98
:1000B00032009B0C3000040C3100F002600AF102A7
:1000C0005D0A04003706670AF802670A1704F2029D
:1000D000590AB402350243060B0A0605C70C300064
:1000E000010C3100F002750AF102720A1602430691
:0E00F0007D0A30000000F0027A0A06040B0AB6
:0200FE000008F8
:020100000008F5
:021FFE00EF0FE3
:00000001FF
