:1000000009C021C020C020C01EC01DC01CC01BC014
:100010001AC019C011241FBECFE9CDBF10E0A0E661
:10002000B0E0EAEDF1E002C005900D92A236B10712
:10003000D9F720E0A2E6B0E001C01D92A736B207D2
:10004000E1F760D0C8C0DCCF1F920F920FB60F92BD
:1000500011248F939F938091640091E0980F909367
:100060006400863048F48FEF86BF9F918F910F9088
:100070000FBE0F901F9018958091650086BF8091EC
:100080006600816080936600109264009F918F915A
:100090000F900FBE0F901F90189514BEA8959CE06E
:1000A00088E10FB6F894A89581BD0FBE91BDA895C3
:1000B00080E886BD16BC81E187BB8EE088BB12BE9E
:1000C0008FEF86BF83EC8FBD83E083BF82E089BF63
:1000D0000895309160008327909162002091630021
:1000E00029272823209363009095982390936200FA
:1000F0008095282B922B90959327892F8F70809332
:100100006000089514BEA8951092660010926500D4
:10011000C4DFCAE086B386958170DBDFEFEAF4E0E6
:100120003197F1F700C00000C150A1F7811151C013
:10013000C0E578945FE0E52E0C2F10E0FF24FA94E0
:10014000D7ECA8958091660080FFFBCF8091660078
:100150008E7F8093660086B386958170BADF8111A9
:100160002EC0C03571F0C80102978035910514F496
:1001700080E590E0C82F42E3E42E082F10E08E3790
:10018000C0F4C498EE20C1F0EA94C801880F991F0A
:10019000880F991F880F991F801B910B880F991F3B
:1001A000880F991F880F991F8D2F891B80936500D9
:1001B000C8CFC49AE110E8CFF0926500C2CFCA3A26
:1001C000C1F3C80102968B3A9105A4F28AEA90E045
:0A01D000D1CFCAEAAECFF894FFCFFA
:0201DA00010022
:00000001FF
