:020000040000FA
:10000000250004006600080C0600800C02007F0C2E
:10001000350004006606160A0A0C95000307130A49
:10002000050CB500210A050C3500210AF50C30003D
:100030001502900003071F0A050CF501210AFA0CAE
:1000400035007F0C95000307270A4605280A460459
:10005000FA0C95004306340A050C95004306340A51
:10006000190C330026043A0A13024306390AF30036
:100070003A0A2605040C32009B0C3000040C3100B7
:10008000F002430AF102400A0400F2023C0AB40200
:100090000605C70C3000010C3100F002500AF102D5
:1000A0004D0A15024306580A30000000F002550AB6
:0400B0000604090A2F
:021FFE00EF0FE3
:00000001FF
