:020000040000FA
:10000000250004006600080C0600800C0200780C35
:100010003600320C350004006606180A660C96009D
:100020000307150A020CB600230A640C3600230AE3
:100030008A0C3000160290000307210A020CF60118
:10004000230A8C0C3600780C96000307290A460513
:100050002A0A46048C0C96004306360A640C960065
:100060004306360A190C330026043C0A13024306E1
:100070003B0AF3003C0A26058C0C96004306470A0F
:10008000640C96004306470A320C35004A0A3502D2
:100090004307F500040C32009B0C3000040C3100C7
:1000A000F002530AF102500A0400F2024C0AB402B0
:1000B000350243060B0A0605C70C3000010C31005F
:1000C000F002630AF102600A160243066B0A30006E
:0A00D0000000F002680A06040B0AA3
:021FFE00EF0FE3
:00000001FF
