:02000000A6292F
:08000800B108031D08280800DF
:10001000F930FF3E031D09280000B10B0828080035
:100020008312AF01B0010514C730AF000130B0003A
:10003000AF0B1B28B00B1828200803192328AF008A
:100040000000AF0B20280510640008000430831264
:10005000AF002F08B000AF03B00803190800053047
:10006000B1000420640029282C082F06B0002B08BA
:10007000AA06AB093008AA053008AB05B201300961
:10008000B100B2092A08B1042B08B104B109310842
:10009000AC063030AC053108B20008008312851D73
:1000A0006428B00124082207AF000318B00A2F0803
:1000B00020023008031C6128031D61282408A002C7
:1000C00008002208A000080024082102AF00200830
:1000D0002F02031C6E282408A00708002108A00096
:1000E00008000B08B1002F0883169B00831230080C
:1000F00083169A001C1555309D00AA309D009C1453
:100100009C1C842864008028831231088B0083168D
:100110001C1108002F0883169B001C141A08831258
:10012000B000080083128316FF2383169000831209
:1001300083120730990085018316810138309500BC
:1001400085008312A701AF018A110A128A203008A4
:10015000A1000130AF008A203008A2000230AF00B9
:100160008A203008A4000330AF008A203008A6009F
:10017000AD01AC013230A800FF300506AF003030D1
:10018000AF0534203208AD002C08303A031D282971
:10019000A903031D2A29F930850504308506AE011F
:1001A00008302E020318DD282620FF300506AF0098
:1001B0003030AF053420AE0AD028AC08031DCD285E
:1001C0002708003A0319EB280F3A0319F728163AC3
:1001D0000319052926290F30A700F9308505AF013D
:1001E0008A203008A100A0000F30A8002A29193069
:1001F000A700F930850505150130AF008A203008C9
:10020000A200A0000F30A8002A29AF012108B000E9
:10021000712001308312AF002208B00071208312D8
:10022000AF018A203008A1000130AF008A203008D9
:10023000A2002108A3000310A30C2208AF000310A2
:100240002F0CA307F9308505A7012A29A7012A2920
:100250003230A9002708003A031935290F3A03194B
:100260005029163A03197B29A3294E20200823027E
:1002700003183C2905153D290511210820060319FD
:10028000452922082006031D4C29A508031D4A29DB
:100290008514A329A503A32985101930A500A32936
:1002A000A80803195529A803A3292C08103A031DEF
:1002B000682984302102031C62290530A10221082B
:1002C000A00065297F30A100A0000F30A800782988
:1002D0002C08203A031D78292108FA3C031C7529B3
:1002E0000530A1072108A0007829FF30A100A00057
:1002F0000F30A800A329A80803198029A803A3295F
:100300002C08103A031D912905302202031C8D2967
:100310000530A2022208A000A129A2010030A001FC
:10032000A1292C08203A031DA12922087A3C031C8C
:100330009E290530A2072208A000A1297F30A20033
:10034000A0000F30A80026201020BC287F30831288
:10035000A000FF30A100A2017F30A3000530A4005F
:100360001930A5001930A600A7010F30A8003230BF
:0E037000A900AA01AB01AC018A110A12922861
:02400E00CC3FA5
:08420000FA0005000500190099
:00000001FF
