:020000009B293A
:08000800A808031D08280800E8
:10001000F930FF3E031D09280000A80B082808003E
:1000200083120313A801A901A60803190800A60357
:100030000514C730A8000130A900A80B2028A90B7F
:100040001D28200803192828A8000000A80B25282F
:10005000051064008514C730A8000130A900A80B62
:100060003228A90B2F28210803193A28A8000000DC
:10007000A80B37288510640008000430831203138E
:10008000A800042064000430A800042064000430A8
:10009000A800042064000530A800042064000800C3
:1000A0000230A900AA00AB00AC00AD00AE00AF006A
:1000B000B001B10122082006031D61280130AE0005
:1000C0006528230820060319AE0122082106031D16
:1000D0006C280130AF007028230821060319AF01F6
:1000E0002E08023A0319A0282F08023A0319A02863
:1000F000AE08031D85282F03031D85282808103A04
:10010000031D85280130A900AD00AE08031D92280B
:10011000AF08031D92282808303A031D92280130A9
:10012000AA00AC002E03031DA028AF08031DA028C1
:100130002808203A031DA0280130AB000330AD0091
:100140002908013A0319AB28023A0319AD28013AEC
:100150000319AD28AD283016AE28B0162A08013A8A
:100160000319B928023A0319BB28013A0319BB281D
:10017000BB283015BC28B0152B08013A0319C72835
:10018000023A0319C928013A0319C928C9283014A9
:10019000CA28B0142C08013A0319D528023A0319C9
:1001A000D728013A0319DA28DA283017DB28C030BB
:1001B000B004DB28B0172D08013A0319E628023AEB
:1001C0000319E828013A0319EB28EB283115EC282C
:1001D0000C30B104EC28B1153008860031088500D8
:1001E00008002808103A0319FC28203A03190029AE
:1001F000103A0319042908000130A900AA010729AF
:100200000130AA00A90007290130AA00A901290389
:10021000031D1D29AC0125082307AB000318AC0AF8
:100220002B0820022C08031C1A29031D1A29250853
:10023000A00229292308A000292925082202AB00B1
:1002400020082B02031C27292508A007292922089A
:10025000A0002A03031D3F29AC0125082307AB009A
:100260000318AC0A2B0821022C08031C3C29031D8F
:100270003C292508A1024B292308A1004B29250868
:100280002202AB0021082B02031C49292508A107E3
:100290004B292208A1002208200203185329200814
:1002A0002302031C5B2922082102031808002108ED
:1002B0002302031808003230A6000800073083121A
:1002C00003139F003030831685008601AA30831205
:1002D000A2005030A3007D30A4000230A5003230CF
:1002E000A60030300505A7002708103A03197F291A
:1002F000203A03198329103A031988298C29AA3036
:10030000A100A0008F295030A000AA30A1008F29A1
:100310005030A100A0008F297D30A100A000303016
:100320000505A7002708A800F12010202708A8002D
:1003300050203D208F297D3083120313A0007D3093
:10034000A100AA30A2005030A3007D30A4000230EA
:0C035000A5003230A6008A110A125E29B6
:00000001FF
